{
  "_format": "hh-sol-artifact-1",
  "contractName": "BetGame",
  "sourceName": "contracts/bet-game.sol",
  "abi": [
    {
      "inputs": [],
      "stateMutability": "nonpayable",
      "type": "constructor"
    },
    {
      "anonymous": false,
      "inputs": [
        {
          "indexed": true,
          "internalType": "address",
          "name": "previousOwner",
          "type": "address"
        },
        {
          "indexed": true,
          "internalType": "address",
          "name": "newOwner",
          "type": "address"
        }
      ],
      "name": "OwnershipTransferred",
      "type": "event"
    },
    {
      "inputs": [],
      "name": "addLiquidity",
      "outputs": [
        {
          "internalType": "bool",
          "name": "",
          "type": "bool"
        }
      ],
      "stateMutability": "payable",
      "type": "function"
    },
    {
      "inputs": [
        {
          "internalType": "enum BetGame.BetType",
          "name": "betType",
          "type": "uint8"
        }
      ],
      "name": "bet",
      "outputs": [
        {
          "components": [
            {
              "internalType": "uint256",
              "name": "openTime",
              "type": "uint256"
            },
            {
              "internalType": "uint256",
              "name": "firstDigit",
              "type": "uint256"
            },
            {
              "internalType": "uint256",
              "name": "secondDigit",
              "type": "uint256"
            },
            {
              "internalType": "uint256",
              "name": "thirdDigit",
              "type": "uint256"
            }
          ],
          "internalType": "struct BetGame.DrawResult",
          "name": "",
          "type": "tuple"
        }
      ],
      "stateMutability": "payable",
      "type": "function"
    },
    {
      "inputs": [
        {
          "internalType": "uint256",
          "name": "amount",
          "type": "uint256"
        }
      ],
      "name": "canBet",
      "outputs": [
        {
          "internalType": "bool",
          "name": "",
          "type": "bool"
        }
      ],
      "stateMutability": "view",
      "type": "function"
    },
    {
      "inputs": [
        {
          "internalType": "uint256",
          "name": "",
          "type": "uint256"
        }
      ],
      "name": "drawResults",
      "outputs": [
        {
          "internalType": "uint256",
          "name": "openTime",
          "type": "uint256"
        },
        {
          "internalType": "uint256",
          "name": "firstDigit",
          "type": "uint256"
        },
        {
          "internalType": "uint256",
          "name": "secondDigit",
          "type": "uint256"
        },
        {
          "internalType": "uint256",
          "name": "thirdDigit",
          "type": "uint256"
        }
      ],
      "stateMutability": "view",
      "type": "function"
    },
    {
      "inputs": [],
      "name": "getLastDrawResult",
      "outputs": [
        {
          "components": [
            {
              "internalType": "uint256",
              "name": "openTime",
              "type": "uint256"
            },
            {
              "internalType": "uint256",
              "name": "firstDigit",
              "type": "uint256"
            },
            {
              "internalType": "uint256",
              "name": "secondDigit",
              "type": "uint256"
            },
            {
              "internalType": "uint256",
              "name": "thirdDigit",
              "type": "uint256"
            }
          ],
          "internalType": "struct BetGame.DrawResult",
          "name": "",
          "type": "tuple"
        }
      ],
      "stateMutability": "view",
      "type": "function"
    },
    {
      "inputs": [],
      "name": "getLiquidity",
      "outputs": [
        {
          "internalType": "uint256",
          "name": "",
          "type": "uint256"
        }
      ],
      "stateMutability": "view",
      "type": "function"
    },
    {
      "inputs": [],
      "name": "owner",
      "outputs": [
        {
          "internalType": "address",
          "name": "",
          "type": "address"
        }
      ],
      "stateMutability": "view",
      "type": "function"
    },
    {
      "inputs": [],
      "name": "renounceOwnership",
      "outputs": [],
      "stateMutability": "nonpayable",
      "type": "function"
    },
    {
      "inputs": [],
      "name": "takeLiquidity",
      "outputs": [
        {
          "internalType": "bool",
          "name": "",
          "type": "bool"
        }
      ],
      "stateMutability": "payable",
      "type": "function"
    },
    {
      "inputs": [
        {
          "internalType": "address",
          "name": "newOwner",
          "type": "address"
        }
      ],
      "name": "transferOwnership",
      "outputs": [],
      "stateMutability": "nonpayable",
      "type": "function"
    }
  ],
  "bytecode": "0x60806040523480156200001157600080fd5b5062000032620000266200006560201b60201c565b6200006d60201b60201c565b62000057738626f6940e2eb28930efb4cef49b2d1f2c9c11996200013160201b60201c565b60006001819055506200036f565b600033905090565b60008060009054906101000a900473ffffffffffffffffffffffffffffffffffffffff169050816000806101000a81548173ffffffffffffffffffffffffffffffffffffffff021916908373ffffffffffffffffffffffffffffffffffffffff1602179055508173ffffffffffffffffffffffffffffffffffffffff168173ffffffffffffffffffffffffffffffffffffffff167f8be0079c531659141344cd1fd0a4f28419497f9722a3daafe3b4186f6b6457e060405160405180910390a35050565b620001416200006560201b60201c565b73ffffffffffffffffffffffffffffffffffffffff16620001676200024760201b60201c565b73ffffffffffffffffffffffffffffffffffffffff1614620001c0576040517f08c379a0000000000000000000000000000000000000000000000000000000008152600401620001b7906200033c565b60405180910390fd5b600073ffffffffffffffffffffffffffffffffffffffff168173ffffffffffffffffffffffffffffffffffffffff16141562000233576040517f08c379a00000000000000000000000000000000000000000000000000000000081526004016200022a906200031a565b60405180910390fd5b62000244816200006d60201b60201c565b50565b60008060009054906101000a900473ffffffffffffffffffffffffffffffffffffffff16905090565b60006200027f6026836200035e565b91507f4f776e61626c653a206e6577206f776e657220697320746865207a65726f206160008301527f64647265737300000000000000000000000000000000000000000000000000006020830152604082019050919050565b6000620002e76020836200035e565b91507f4f776e61626c653a2063616c6c6572206973206e6f7420746865206f776e65726000830152602082019050919050565b60006020820190508181036000830152620003358162000270565b9050919050565b600060208201905081810360008301526200035781620002d8565b9050919050565b600082825260208201905092915050565b611192806200037f6000396000f3fe6080604052600436106100915760003560e01c806391578f111161005957806391578f111461015e578063d0821b0e14610189578063e8078d94146101b9578063ea2ea085146101d7578063f2fde38b1461021757610091565b80630910a51014610096578063364e69b7146100c1578063468cabab146100fe578063715018a61461011c5780638da5cb5b14610133575b600080fd5b3480156100a257600080fd5b506100ab610240565b6040516100b89190610ec1565b60405180910390f35b3480156100cd57600080fd5b506100e860048036038101906100e39190610af3565b61024a565b6040516100f59190610dcb565b60405180910390f35b610106610264565b6040516101139190610dcb565b60405180910390f35b34801561012857600080fd5b50610131610394565b005b34801561013f57600080fd5b5061014861041c565b6040516101559190610d79565b60405180910390f35b34801561016a57600080fd5b50610173610445565b6040516101809190610ea6565b60405180910390f35b6101a3600480360381019061019e9190610aca565b610498565b6040516101b09190610ea6565b60405180910390f35b6101c1610752565b6040516101ce9190610dcb565b60405180910390f35b3480156101e357600080fd5b506101fe60048036038101906101f99190610af3565b610774565b60405161020e9493929190610edc565b60405180910390f35b34801561022357600080fd5b5061023e60048036038101906102399190610aa1565b6107a4565b005b6000600154905090565b6000600460015461025b9190610f88565b82109050919050565b600061026e61041c565b73ffffffffffffffffffffffffffffffffffffffff163373ffffffffffffffffffffffffffffffffffffffff16146102db576040517f08c379a00000000000000000000000000000000000000000000000000000000081526004016102d290610de6565b60405180910390fd5b346001541015610320576040517f08c379a000000000000000000000000000000000000000000000000000000000815260040161031790610e86565b60405180910390fd5b600061032a61041c565b90508073ffffffffffffffffffffffffffffffffffffffff166108fc349081150290604051600060405180830381858888f19350505050158015610372573d6000803e3d6000fd5b5034600160008282546103859190611013565b92505081905550600191505090565b61039c61089c565b73ffffffffffffffffffffffffffffffffffffffff166103ba61041c565b73ffffffffffffffffffffffffffffffffffffffff1614610410576040517f08c379a000000000000000000000000000000000000000000000000000000000815260040161040790610e66565b60405180910390fd5b61041a60006108a4565b565b60008060009054906101000a900473ffffffffffffffffffffffffffffffffffffffff16905090565b61044d610a3a565b60026000438152602001908152602001600020604051806080016040529081600082015481526020016001820154815260200160028201548152602001600382015481525050905090565b6104a0610a3a565b600034116104e3576040517f08c379a00000000000000000000000000000000000000000000000000000000081526004016104da90610e46565b60405180910390fd5b6104ec3461024a565b61052b576040517f08c379a000000000000000000000000000000000000000000000000000000000815260040161052290610e06565b60405180910390fd5b600060405180604001604052803373ffffffffffffffffffffffffffffffffffffffff1681526020013481525090508060200151600160008282546105709190610f32565b925050819055506000610581610968565b9050806002600043815260200190815260200160002060008201518160000155602082015181600101556040820151816002015560608201518160030155905050600060019050846005811115610601577f4e487b7100000000000000000000000000000000000000000000000000000000600052602160045260246000fd5b8260200151141561061c576001816106199190610f32565b90505b846005811115610655577f4e487b7100000000000000000000000000000000000000000000000000000000600052602160045260246000fd5b826040015114156106705760018161066d9190610f32565b90505b8460058111156106a9577f4e487b7100000000000000000000000000000000000000000000000000000000600052602160045260246000fd5b826060015114156106c4576001816106c19190610f32565b90505b60018111156107475760008184602001516106df9190610fb9565b9050836000015173ffffffffffffffffffffffffffffffffffffffff166108fc829081150290604051600060405180830381858888f1935050505015801561072b573d6000803e3d6000fd5b50806001600082825461073e9190611013565b92505081905550505b819350505050919050565b600034600160008282546107669190610f32565b925050819055506001905090565b60026020528060005260406000206000915090508060000154908060010154908060020154908060030154905084565b6107ac61089c565b73ffffffffffffffffffffffffffffffffffffffff166107ca61041c565b73ffffffffffffffffffffffffffffffffffffffff1614610820576040517f08c379a000000000000000000000000000000000000000000000000000000000815260040161081790610e66565b60405180910390fd5b600073ffffffffffffffffffffffffffffffffffffffff168173ffffffffffffffffffffffffffffffffffffffff161415610890576040517f08c379a000000000000000000000000000000000000000000000000000000000815260040161088790610e26565b60405180910390fd5b610899816108a4565b50565b600033905090565b60008060009054906101000a900473ffffffffffffffffffffffffffffffffffffffff169050816000806101000a81548173ffffffffffffffffffffffffffffffffffffffff021916908373ffffffffffffffffffffffffffffffffffffffff1602179055508173ffffffffffffffffffffffffffffffffffffffff168173ffffffffffffffffffffffffffffffffffffffff167f8be0079c531659141344cd1fd0a4f28419497f9722a3daafe3b4186f6b6457e060405160405180910390a35050565b610970610a3a565b600061097c60d86109f8565b9050600060068261098d919061108f565b905060006006808461099f9190610f88565b6109a9919061108f565b9050600060066024856109bc9190610f88565b6109c6919061108f565b905060006040518060800160405280428152602001858152602001848152602001838152509050809550505050505090565b600081334243604051602001610a1093929190610d94565b6040516020818303038152906040528051906020012060001c610a33919061108f565b9050919050565b6040518060800160405280600081526020016000815260200160008152602001600081525090565b600081359050610a718161111e565b92915050565b600081359050610a8681611135565b92915050565b600081359050610a9b81611145565b92915050565b600060208284031215610ab357600080fd5b6000610ac184828501610a62565b91505092915050565b600060208284031215610adc57600080fd5b6000610aea84828501610a77565b91505092915050565b600060208284031215610b0557600080fd5b6000610b1384828501610a8c565b91505092915050565b610b2581611047565b82525050565b610b3481611059565b82525050565b6000610b47601d83610f21565b91507f4f6e6c79206f776e65722063616e2074616b65206c69717569646974790000006000830152602082019050919050565b6000610b87601983610f21565b91507f506f6f6c206c6971756964697479206e6f7420656e6f756768000000000000006000830152602082019050919050565b6000610bc7602683610f21565b91507f4f776e61626c653a206e6577206f776e657220697320746865207a65726f206160008301527f64647265737300000000000000000000000000000000000000000000000000006020830152604082019050919050565b6000610c2d602183610f21565b91507f42657420616d6f756e74206d7573742062652067726561746572207468616e2060008301527f30000000000000000000000000000000000000000000000000000000000000006020830152604082019050919050565b6000610c93602083610f21565b91507f4f776e61626c653a2063616c6c6572206973206e6f7420746865206f776e65726000830152602082019050919050565b6000610cd3601483610f21565b91507f4e6f7420656e6f756768206c69717569646974790000000000000000000000006000830152602082019050919050565b608082016000820151610d1c6000850182610d5b565b506020820151610d2f6020850182610d5b565b506040820151610d426040850182610d5b565b506060820151610d556060850182610d5b565b50505050565b610d6481611085565b82525050565b610d7381611085565b82525050565b6000602082019050610d8e6000830184610b1c565b92915050565b6000606082019050610da96000830186610b1c565b610db66020830185610d6a565b610dc36040830184610d6a565b949350505050565b6000602082019050610de06000830184610b2b565b92915050565b60006020820190508181036000830152610dff81610b3a565b9050919050565b60006020820190508181036000830152610e1f81610b7a565b9050919050565b60006020820190508181036000830152610e3f81610bba565b9050919050565b60006020820190508181036000830152610e5f81610c20565b9050919050565b60006020820190508181036000830152610e7f81610c86565b9050919050565b60006020820190508181036000830152610e9f81610cc6565b9050919050565b6000608082019050610ebb6000830184610d06565b92915050565b6000602082019050610ed66000830184610d6a565b92915050565b6000608082019050610ef16000830187610d6a565b610efe6020830186610d6a565b610f0b6040830185610d6a565b610f186060830184610d6a565b95945050505050565b600082825260208201905092915050565b6000610f3d82611085565b9150610f4883611085565b9250827fffffffffffffffffffffffffffffffffffffffffffffffffffffffffffffffff03821115610f7d57610f7c6110c0565b5b828201905092915050565b6000610f9382611085565b9150610f9e83611085565b925082610fae57610fad6110ef565b5b828204905092915050565b6000610fc482611085565b9150610fcf83611085565b9250817fffffffffffffffffffffffffffffffffffffffffffffffffffffffffffffffff0483118215151615611008576110076110c0565b5b828202905092915050565b600061101e82611085565b915061102983611085565b92508282101561103c5761103b6110c0565b5b828203905092915050565b600061105282611065565b9050919050565b60008115159050919050565b600073ffffffffffffffffffffffffffffffffffffffff82169050919050565b6000819050919050565b600061109a82611085565b91506110a583611085565b9250826110b5576110b46110ef565b5b828206905092915050565b7f4e487b7100000000000000000000000000000000000000000000000000000000600052601160045260246000fd5b7f4e487b7100000000000000000000000000000000000000000000000000000000600052601260045260246000fd5b61112781611047565b811461113257600080fd5b50565b6006811061114257600080fd5b50565b61114e81611085565b811461115957600080fd5b5056fea26469706673582212208adee7aceca4b386d87900fa3860cfa7d9cc688bbe876d7a03673aae61885ed064736f6c63430008000033",
  "linkReferences": {},
  "deployedLinkReferences": {}
}