{
  "_format": "hh-sol-artifact-1",
  "contractName": "BetGame",
  "sourceName": "contracts/bet-game.sol",
  "abi": [
    {
      "inputs": [],
      "stateMutability": "nonpayable",
      "type": "constructor"
    },
    {
      "anonymous": false,
      "inputs": [
        {
          "indexed": true,
          "internalType": "address",
          "name": "previousOwner",
          "type": "address"
        },
        {
          "indexed": true,
          "internalType": "address",
          "name": "newOwner",
          "type": "address"
        }
      ],
      "name": "OwnershipTransferred",
      "type": "event"
    },
    {
      "inputs": [],
      "name": "addLiquidity",
      "outputs": [
        {
          "internalType": "bool",
          "name": "",
          "type": "bool"
        }
      ],
      "stateMutability": "payable",
      "type": "function"
    },
    {
      "inputs": [
        {
          "internalType": "enum BetGame.BetType",
          "name": "betType",
          "type": "uint8"
        }
      ],
      "name": "bet",
      "outputs": [
        {
          "internalType": "uint256",
          "name": "",
          "type": "uint256"
        },
        {
          "internalType": "uint256",
          "name": "",
          "type": "uint256"
        },
        {
          "internalType": "uint256",
          "name": "",
          "type": "uint256"
        }
      ],
      "stateMutability": "payable",
      "type": "function"
    },
    {
      "inputs": [
        {
          "internalType": "uint256",
          "name": "amount",
          "type": "uint256"
        }
      ],
      "name": "canBet",
      "outputs": [
        {
          "internalType": "bool",
          "name": "",
          "type": "bool"
        }
      ],
      "stateMutability": "view",
      "type": "function"
    },
    {
      "inputs": [],
      "name": "getLiquidity",
      "outputs": [
        {
          "internalType": "uint256",
          "name": "",
          "type": "uint256"
        }
      ],
      "stateMutability": "view",
      "type": "function"
    },
    {
      "inputs": [],
      "name": "owner",
      "outputs": [
        {
          "internalType": "address",
          "name": "",
          "type": "address"
        }
      ],
      "stateMutability": "view",
      "type": "function"
    },
    {
      "inputs": [],
      "name": "renounceOwnership",
      "outputs": [],
      "stateMutability": "nonpayable",
      "type": "function"
    },
    {
      "inputs": [],
      "name": "takeLiquidity",
      "outputs": [
        {
          "internalType": "bool",
          "name": "",
          "type": "bool"
        }
      ],
      "stateMutability": "payable",
      "type": "function"
    },
    {
      "inputs": [
        {
          "internalType": "address",
          "name": "newOwner",
          "type": "address"
        }
      ],
      "name": "transferOwnership",
      "outputs": [],
      "stateMutability": "nonpayable",
      "type": "function"
    }
  ],
  "bytecode": "0x60806040523480156200001157600080fd5b5062000032620000266200006560201b60201c565b6200006d60201b60201c565b62000057738626f6940e2eb28930efb4cef49b2d1f2c9c11996200013160201b60201c565b60006001819055506200036f565b600033905090565b60008060009054906101000a900473ffffffffffffffffffffffffffffffffffffffff169050816000806101000a81548173ffffffffffffffffffffffffffffffffffffffff021916908373ffffffffffffffffffffffffffffffffffffffff1602179055508173ffffffffffffffffffffffffffffffffffffffff168173ffffffffffffffffffffffffffffffffffffffff167f8be0079c531659141344cd1fd0a4f28419497f9722a3daafe3b4186f6b6457e060405160405180910390a35050565b620001416200006560201b60201c565b73ffffffffffffffffffffffffffffffffffffffff16620001676200024760201b60201c565b73ffffffffffffffffffffffffffffffffffffffff1614620001c0576040517f08c379a0000000000000000000000000000000000000000000000000000000008152600401620001b7906200033c565b60405180910390fd5b600073ffffffffffffffffffffffffffffffffffffffff168173ffffffffffffffffffffffffffffffffffffffff16141562000233576040517f08c379a00000000000000000000000000000000000000000000000000000000081526004016200022a906200031a565b60405180910390fd5b62000244816200006d60201b60201c565b50565b60008060009054906101000a900473ffffffffffffffffffffffffffffffffffffffff16905090565b60006200027f6026836200035e565b91507f4f776e61626c653a206e6577206f776e657220697320746865207a65726f206160008301527f64647265737300000000000000000000000000000000000000000000000000006020830152604082019050919050565b6000620002e76020836200035e565b91507f4f776e61626c653a2063616c6c6572206973206e6f7420746865206f776e65726000830152602082019050919050565b60006020820190508181036000830152620003358162000270565b9050919050565b600060208201905081810360008301526200035781620002d8565b9050919050565b600082825260208201905092915050565b610f7b806200037f6000396000f3fe60806040526004361061007b5760003560e01c80638da5cb5b1161004e5780638da5cb5b1461011d578063d0821b0e14610148578063e8078d941461017a578063f2fde38b146101985761007b565b80630910a51014610080578063364e69b7146100ab578063468cabab146100e8578063715018a614610106575b600080fd5b34801561008c57600080fd5b506100956101c1565b6040516100a29190610cb8565b60405180910390f35b3480156100b757600080fd5b506100d260048036038101906100cd9190610969565b6101cb565b6040516100df9190610bdd565b60405180910390f35b6100f06101e5565b6040516100fd9190610bdd565b60405180910390f35b34801561011257600080fd5b5061011b610315565b005b34801561012957600080fd5b5061013261039d565b60405161013f9190610b8b565b60405180910390f35b610162600480360381019061015d9190610940565b6103c6565b60405161017193929190610cd3565b60405180910390f35b610182610642565b60405161018f9190610bdd565b60405180910390f35b3480156101a457600080fd5b506101bf60048036038101906101ba9190610917565b610664565b005b6000600154905090565b600060046001546101dc9190610d71565b82109050919050565b60006101ef61039d565b73ffffffffffffffffffffffffffffffffffffffff163373ffffffffffffffffffffffffffffffffffffffff161461025c576040517f08c379a000000000000000000000000000000000000000000000000000000000815260040161025390610bf8565b60405180910390fd5b3460015410156102a1576040517f08c379a000000000000000000000000000000000000000000000000000000000815260040161029890610c98565b60405180910390fd5b60006102ab61039d565b90508073ffffffffffffffffffffffffffffffffffffffff166108fc349081150290604051600060405180830381858888f193505050501580156102f3573d6000803e3d6000fd5b5034600160008282546103069190610dfc565b92505081905550600191505090565b61031d61075c565b73ffffffffffffffffffffffffffffffffffffffff1661033b61039d565b73ffffffffffffffffffffffffffffffffffffffff1614610391576040517f08c379a000000000000000000000000000000000000000000000000000000000815260040161038890610c78565b60405180910390fd5b61039b6000610764565b565b60008060009054906101000a900473ffffffffffffffffffffffffffffffffffffffff16905090565b600080600080341161040d576040517f08c379a000000000000000000000000000000000000000000000000000000000815260040161040490610c58565b60405180910390fd5b610416346101cb565b610455576040517f08c379a000000000000000000000000000000000000000000000000000000000815260040161044c90610c18565b60405180910390fd5b600060405180604001604052803373ffffffffffffffffffffffffffffffffffffffff16815260200134815250905080602001516001600082825461049a9190610d1b565b9250508190555060008060006104ae610828565b9250925092506000600190508860058111156104f3577f4e487b7100000000000000000000000000000000000000000000000000000000600052602160045260246000fd5b84141561050a576001816105079190610d1b565b90505b886005811115610543577f4e487b7100000000000000000000000000000000000000000000000000000000600052602160045260246000fd5b83141561055a576001816105579190610d1b565b90505b886005811115610593577f4e487b7100000000000000000000000000000000000000000000000000000000600052602160045260246000fd5b8214156105aa576001816105a79190610d1b565b90505b600181111561062d5760008186602001516105c59190610da2565b9050856000015173ffffffffffffffffffffffffffffffffffffffff166108fc829081150290604051600060405180830381858888f19350505050158015610611573d6000803e3d6000fd5b5080600160008282546106249190610dfc565b92505081905550505b83838397509750975050505050509193909250565b600034600160008282546106569190610d1b565b925050819055506001905090565b61066c61075c565b73ffffffffffffffffffffffffffffffffffffffff1661068a61039d565b73ffffffffffffffffffffffffffffffffffffffff16146106e0576040517f08c379a00000000000000000000000000000000000000000000000000000000081526004016106d790610c78565b60405180910390fd5b600073ffffffffffffffffffffffffffffffffffffffff168173ffffffffffffffffffffffffffffffffffffffff161415610750576040517f08c379a000000000000000000000000000000000000000000000000000000000815260040161074790610c38565b60405180910390fd5b61075981610764565b50565b600033905090565b60008060009054906101000a900473ffffffffffffffffffffffffffffffffffffffff169050816000806101000a81548173ffffffffffffffffffffffffffffffffffffffff021916908373ffffffffffffffffffffffffffffffffffffffff1602179055508173ffffffffffffffffffffffffffffffffffffffff168173ffffffffffffffffffffffffffffffffffffffff167f8be0079c531659141344cd1fd0a4f28419497f9722a3daafe3b4186f6b6457e060405160405180910390a35050565b60008060008061083860d8610896565b905060006006826108499190610e78565b905060006006808461085b9190610d71565b6108659190610e78565b9050600060066024856108789190610d71565b6108829190610e78565b905082828296509650965050505050909192565b6000813342436040516020016108ae93929190610ba6565b6040516020818303038152906040528051906020012060001c6108d19190610e78565b9050919050565b6000813590506108e781610f07565b92915050565b6000813590506108fc81610f1e565b92915050565b60008135905061091181610f2e565b92915050565b60006020828403121561092957600080fd5b6000610937848285016108d8565b91505092915050565b60006020828403121561095257600080fd5b6000610960848285016108ed565b91505092915050565b60006020828403121561097b57600080fd5b600061098984828501610902565b91505092915050565b61099b81610e30565b82525050565b6109aa81610e42565b82525050565b60006109bd601d83610d0a565b91507f4f6e6c79206f776e65722063616e2074616b65206c69717569646974790000006000830152602082019050919050565b60006109fd601983610d0a565b91507f506f6f6c206c6971756964697479206e6f7420656e6f756768000000000000006000830152602082019050919050565b6000610a3d602683610d0a565b91507f4f776e61626c653a206e6577206f776e657220697320746865207a65726f206160008301527f64647265737300000000000000000000000000000000000000000000000000006020830152604082019050919050565b6000610aa3602183610d0a565b91507f42657420616d6f756e74206d7573742062652067726561746572207468616e2060008301527f30000000000000000000000000000000000000000000000000000000000000006020830152604082019050919050565b6000610b09602083610d0a565b91507f4f776e61626c653a2063616c6c6572206973206e6f7420746865206f776e65726000830152602082019050919050565b6000610b49601483610d0a565b91507f4e6f7420656e6f756768206c69717569646974790000000000000000000000006000830152602082019050919050565b610b8581610e6e565b82525050565b6000602082019050610ba06000830184610992565b92915050565b6000606082019050610bbb6000830186610992565b610bc86020830185610b7c565b610bd56040830184610b7c565b949350505050565b6000602082019050610bf260008301846109a1565b92915050565b60006020820190508181036000830152610c11816109b0565b9050919050565b60006020820190508181036000830152610c31816109f0565b9050919050565b60006020820190508181036000830152610c5181610a30565b9050919050565b60006020820190508181036000830152610c7181610a96565b9050919050565b60006020820190508181036000830152610c9181610afc565b9050919050565b60006020820190508181036000830152610cb181610b3c565b9050919050565b6000602082019050610ccd6000830184610b7c565b92915050565b6000606082019050610ce86000830186610b7c565b610cf56020830185610b7c565b610d026040830184610b7c565b949350505050565b600082825260208201905092915050565b6000610d2682610e6e565b9150610d3183610e6e565b9250827fffffffffffffffffffffffffffffffffffffffffffffffffffffffffffffffff03821115610d6657610d65610ea9565b5b828201905092915050565b6000610d7c82610e6e565b9150610d8783610e6e565b925082610d9757610d96610ed8565b5b828204905092915050565b6000610dad82610e6e565b9150610db883610e6e565b9250817fffffffffffffffffffffffffffffffffffffffffffffffffffffffffffffffff0483118215151615610df157610df0610ea9565b5b828202905092915050565b6000610e0782610e6e565b9150610e1283610e6e565b925082821015610e2557610e24610ea9565b5b828203905092915050565b6000610e3b82610e4e565b9050919050565b60008115159050919050565b600073ffffffffffffffffffffffffffffffffffffffff82169050919050565b6000819050919050565b6000610e8382610e6e565b9150610e8e83610e6e565b925082610e9e57610e9d610ed8565b5b828206905092915050565b7f4e487b7100000000000000000000000000000000000000000000000000000000600052601160045260246000fd5b7f4e487b7100000000000000000000000000000000000000000000000000000000600052601260045260246000fd5b610f1081610e30565b8114610f1b57600080fd5b50565b60068110610f2b57600080fd5b50565b610f3781610e6e565b8114610f4257600080fd5b5056fea2646970667358221220ffdc8cd397cceb3ba04df9a7da0601340d560f9e2b59d669288ef453c2fd889064736f6c63430008000033",
  "linkReferences": {},
  "deployedLinkReferences": {}
}